:020000040000FA
:10000000A8020010690100007101000073010000E6
:100010007501000077010000790100000000000078
:100020000000000000000000000000007B01000054
:100030007D010000000000007F0100008101000040
:1000400083010000830100008301000083010000A0
:100050008301000083010000830100008301000090
:100060008301000083010000830100008301000080
:100070008301000083010000830100008301000070
:100080008301000083010000830100008301000060
:10009000830100008301000033060000830100009B
:1000A0008301000083010000830100008301000040
:1000B0008301000083010000830100008301000030
:1000C00083010000830100008301000000F002F8BA
:1000D00000F03AF80AA090E8000C82448344AAF1A8
:1000E0000107DA4501D100F02FF8AFF2090EBAE8A6
:1000F0000F0013F0010F18BFFB1A43F0010318475C
:10010000F40A0000140B0000103A24BF78C878C12C
:10011000FAD8520724BF30C830C144BF04680C600D
:10012000704700000023002400250026103A28BF55
:1001300078C1FBD8520728BF30C148BF0B60704759
:100140001FB51FBD10B510BD00F0A6F81146FFF792
:10015000F7FF00F004FA00F0C4F803B4FFF7F2FF71
:1001600003BC00F0E9FA000009488047094800474D
:10017000FEE7FEE7FEE7FEE7FEE7FEE7FEE7FEE757
:10018000FEE7FEE704480549034A054B70470000B7
:10019000A9040000CD000000A8000010A802001073
:1001A000A800001053EA020C00F069802DE9F04B22
:1001B0004FF00006002B1FBFB3FA83F503FA05F4D6
:1001C00024FA05F65E4012BF1643B2FA82F502FA2F
:1001D00005F4C5F120051EBF22FA05FC44EA0C0413
:1001E000203556EA044C4FEA144418BF641C4FF003
:1001F00000084FF00009904271EB030C39D300293D
:1002000019BFB1FA81F701FA07F6B0FA80F700FAE0
:1002100007F6C7F120071EBF20FA07FC46EA0C06C6
:100220002037B6FBF4FCA7EB0507103F07F01F0BC8
:10023000CBF120060CFA0BFB2CFA06F644BFB346B2
:100240000026202FA4BF5E464FF0000B5BEA060C91
:1002500008BF4FF0010B19EB0B09ABFB027C48EB1D
:100260000608C01B06FB02CC0BFB03CC71EB0C0198
:10027000C1E70B46024641464846BDE8F08B13B540
:100280004FF000004FF00001AFF30080BDE81C40CC
:100290007047704770477047754600F029F8AE46C2
:1002A00005006946534620F00700854618B020B582
:1002B000FFF768FFBDE820404FF000064FF0000751
:1002C0004FF000084FF0000B21F00701AC46ACE8FE
:1002D000C009ACE8C009ACE8C009ACE8C0098D466B
:1002E00070470446AFF300802046FFF736FF00005A
:1002F000004870474800001070470000FFFFFFFFF4
:100300002DE9F04781480068C0F3016003287CD1E3
:100310007F48006810F0030006D0012833D002287F
:100320005FD003282ED100E000BF78480068C0F3FA
:10033000074000F101044FF002017648D0F8880030
:10034000C0F30E0000F10100A1FB0001724B4FF061
:10035000000CA0FB037901FB039100FB0C1122466A
:1003600063463846FFF71EFF05466C480068C0B27A
:1003700000F1010422464FF000032846FFF712FF68
:10038000674908605DE061480068C0F3074000F11C
:1003900001044FF002015F48D0F88800C0F30E005E
:1003A00000F10100A1FB00105E4A4FF0000CA1FB20
:1003B000027900FB029001FB0C012246634638469D
:1003C000FFF7F0FE054655480068C0B200F1010491
:1003D00022464FF000032846FFF7E4FE504908602C
:1003E0002FE04A480068C0F3074000F101044FF0D5
:1003F00002014848D0F88800C0F30E0000F1010067
:10040000A1FB00124FF4004000E01BE04FF000039E
:10041000A1FB007902FB009001FB03012246384654
:10042000FFF7C0FE05463D480068C0B200F1010478
:1004300022464FF000032846FFF7B4FE3849086013
:1004400000BF2FE03248006810F0030006D00128FA
:1004500010D0022819D0032823D100E000BF2F4874
:100460000068C0B200F101002B49B1FBF0F02C494B
:10047000086016E029480068C0B200F1010029496F
:10048000B1FBF0F0264908600BE024480068C0B2D8
:1004900000F101004FF40041B1FBF0F02049086089
:1004A00000BF00BFBDE8F08720201F490860194841
:1004B000D0F8A00110F0200F05D000BF1A48006846
:1004C00010F0400FFAD00320144908601748114972
:1004D000C1F8A8011648174908604FF001000C49FF
:1004E00008604FF00400A1F10401086012481349AC
:1004F000086040F201100749C1F8C80108460068C9
:1005000020F4704040F480400860704788C00F407D
:100510000CC10F4000C00F4000093D0004C10F4056
:1005200000000010001BB700A0C10F4055515155ED
:1005300055545554ACC10F40DEF7EFEFC4C00F4027
:1005400000204FF040210867022048604861C860E1
:10055000674888611120C863012048607047FFF731
:10056000A3FFFFF7CDFEFFF7EBFF6248006862498B
:100570000840604908600846406840F480304860A0
:100580000846C068C8604FF47F605C4908604FF05F
:10059000F06008625A48006840F480505949C1F838
:1005A000C4005948594908604FF016004FF0010146
:1005B00001FA00F14FEA50124FF0E02303EB820200
:1005C000C2F8001100BF4FF002005049C86000BFE0
:1005D000FEE7002000BF29E04D4A52F82020474B9B
:1005E0005A63022808D14B4A125C4B4B9A5C42F08A
:1005F00080024A4B1A600AE018B93922474B1A6048
:1006000005E0444A125C444B9A5C444B1A60434AEE
:1006100012681201394B5A61002100E0491CB1F502
:10062000FA7FFBDB0022354B5A61401C0428D3DBE8
:1006300070472DE9F0413548006B00F00200384961
:1006400008600846006818B13048406935490860BC
:100650002E484068344908603248008880B23149E9
:10066000086008460068000908600846006800F055
:10067000E1F9804600F096F9064600222B4B00F087
:1006800093F8044600F05EF82949086008460068BF
:1006900000F0B4F90A2190FBF1F01E49C87024481B
:1006A000006800F0ABF90A2190FBF1F201FB1200A7
:1006B000184988701F491E48006800F0CFF90446A9
:1006C00000F09CF90A2190FBF1F201FB12001149A4
:1006D000487001E0FFF77DFF4FF04020C06B10F045
:1006E000010FF7D111204FF04021C863BDE8F08120
:1006F000BFC62D0000C00240FF0000FF00C009205F
:10070000C4C00F4000C00F40020021000040034061
:100710001800001014000010040000104000001029
:1007200034000010380000103C00001000A0B43F5E
:100730002C0000100000204101491820ABBEFEE74C
:100740002600020021F00042A2F16052B2F5801FA3
:1007500001F0004328BFD2F17F6C0BD95FEA001C87
:1007600043EAC20242EB507018BF704728BF20F026
:1007700001007047B2F5801FBCBF184670474FEAB2
:10078000410C1CF5001F02D2084600F02EBA70B5CD
:1007900000F0B4F800000089FFF7F6BF4FF000400A
:1007A000A0F5800070470000DFF848C170B51CEA72
:1007B000111E1EBF1CEA13159EEA0C0F95EA0C0FC2
:1007C00000F06F8081EA030423EA4C134EEAD47EE2
:1007D00021EA4C1141F4801143F48013AE44A1FB93
:1007E000024CA0FB0365AEF17F7E361955EB0C057C
:1007F000A1FB034C4CF10003A0FB021C16EB0C0602
:10080000654153F10003094218BF46F0010613F495
:10081000007F0BD14FEA03314FEA0530340341EA40
:10082000155140EA16506FF003020AE04FEAC32167
:100830004FEAC520F40241EA555140EA56506FF0A4
:10084000020202EB2E4201EB025585EACE710AD07C
:100850005FEA440C18BF24F0004450F1000041F15D
:10086000000120EAD47040F2FE7C624500D270BDE7
:10087000A84214BF4FF080444FF04044002E08BF00
:100880000024BEF1806FA8BFA1F1C041BDE8704057
:1008900080F282804FF0000001F1C04101F0004180
:1008A00070479EEA0C0F0CEA131518BF95EA0C0F5F
:1008B00006D04FF0000081EA030E0EF0004170BD3B
:1008C00000F01CF88900013E00F007B800F009B8FC
:1008D0004FEA430C5FEA5C5C08D081EA030100F058
:1008E0005BB84FEA410C5FEA5C5CF6D14FF0000068
:1008F000014970470000FF070000F87F0EF1020E6B
:100900002EF0030E5EF8046B364205D4012A43EB49
:10091000030515F5001F12D8012841EB010C1CF549
:10092000001F0CD80ED14FEAD17C15F5001F0CEB3F
:100930004C0C0CF1020C08BF4CEBD37C04E04FF0E4
:10094000080C01E04FEAD37C0CEB4C0526FA05F6C7
:1009500006F00706B6F1040C06D20EEB860CBDE8D5
:1009600070404CF0010C6047DFE80CF0090B02020C
:100970004FF000414FF00000A1F5002170BD194675
:100980001046012851EB010418BFD4F5001484BFB0
:10099000002001F0004170BD0808A0F500114FEAE9
:1009A0003101704743004FEAD30C4FEA3C0C4340FF
:1009B0001FBF40070CF1605113F0FE4F70471CF051
:1009C000006F03D100200CF0004170470CF0004391
:1009D00043EA507010B540EACC0000F0C0F800BF08
:1009E000000000924FEA0001FFF7D6BF4FF0004130
:1009F0004FF00000A1F500217047000041000B0EF0
:100A0000D3F19E0208D950F400034FEA032323FADE
:100A100002F048BF4042704710B500F0A0F800BF98
:100A200049922480002070476FF0004282EA200043
:100A300070470000B0FA80F310FA03F2C3F19D038F
:100A40000AD0D90501EB1220530638BF704700F1D8
:100A5000010008BF20F00100704700004FF47F0C38
:100A60001CEAD0121EBF1CEAD11392EA0C0F93EAC3
:100A70000C0F00F0478090EA010F48BF42F48072EB
:100A80004FF0004C4CEA00204CEA012102EB03023B
:100A9000A0FB0113A2F50002002918BF43F00103D7
:100AA0005B0028BF4FEA330342EB22425FEA132C7C
:100AB0004CEBC2502EBFBCEB436FB2F57C0F7047BE
:100AC0004FEA036CBCF1004F08BF20F00100B2F503
:100AD0007C0F38BF70470BD582F0FF0212F5803FC4
:100AE000C8BF704700F1C040D8BF00F00040704759
:100AF00000F5000C5FEA4C0C48BF7047B0F1C040F5
:100B000000F073B890EA010F0CEAD11348BF42F429
:100B10008072624538BF634504D280EA010000F06C
:100B20000040704710B500F01AF800BF8900013E80
:100B300000F007B800F009B85FEA410C5FEA1C6CEE
:100B400008D080EA010000F050B85FEA400C5FEA8C
:100B50001C6CF6D14FF00040A0F5800070470EF1FC
:100B6000020E2EF0030E5EF8044B244204D44FEA2A
:100B70004102B2F17F4F11D84FEA4003B3F17F4FEA
:100B80000CD80ED14FEAD07CB2F17F4F0CEB4C0C5D
:100B90000CF1020C08BF4CEBD17C04E04FF0080CC8
:100BA00001E04FEAD17C0CEB4C0324FA03F404F08F
:100BB0000704B4F1040C06D20EEB840CBDE810401F
:100BC0004CF0010C6047DFE80CF0070802024FF020
:100BD0000040A0F5800010BD0846420018BFD2F1C9
:100BE000807288BF00F0004010BDFF2141EAD05064
:100BF000C0057047140C0000000000104800000001
:100C0000080100005C0C00004800001060020000B9
:100C100024010000C0C62D003F065B4F666D7D07B6
:100C20007F6F777C395E7971000000000000000062
:100C300000008000000000010000800100000000B2
:100C400000000000000000000000000000000000A4
:0C0C500000000000000000000000000098
:04000005000001698D
:00000001FF
